:020000020000FC
:100000000EC02DC02DC02DC02DC02DC031C031C09F
:1000100031C031C031C031C031C031C031C002E067
:100020000EBF0FE50DBF0FEF07BB03E003BF02E0FC
:1000300009BF0CE702BF01E0102E789401E03016F2
:10004000E9F70EEF3022119608EEA01703E0B00793
:1000500029F4BB27AA2701E0202628BAEFCF18955C
:100060001895189518950CE702BF01E0302A1895ED
:100070001895189518951895189518951895189518
:020080001895D1
:00000001FF
