:020000020000FC
:100000000EC02FC02FC02FC02FC02FC02FC02FC099
:100010002FC02FC02FC031C031C031C031C002E06D
:100020000EBF0FE50DBF0FEF07BB02E00ABD03E0F7
:1000300003BF00E109BF0CE709BD00E002BF7894EF
:1000400001E03016E9F70EEF3022119608EEA01706
:1000500003E0B00729F4BB27AA2701E0202628BA2D
:10006000EFCF189518951895189518951895189517
:100070001895189501E0302A189518951895189537
:020080001895D1
:00000001FF
